HDR.S46030.E00.CRSL0.S475606122023FINANCIAL ACTIVITY       N003                                                                                                                                                                                                                                             
C404756202306090019010001        202306094756                                         4756                                                                                FAR000000004559T                                                                                                      000000000000
C420075007500000001410000000000INA                                                                                                                                                                                                                                                              000000000000
C4301AAMG009597                                                  2000                              75950W150VA2016032305020160323092                                 0075                MI           FIX                                                                                       000000000000
C4302AAMG009597                    1OK NYOUNG                              ANN                      Y                                                                                                                       145302322           34                                              000000000000
C4303AAMG009597                    3 DIANE DR                                                                                               PEDRICKTOWN                   NJ08067          US                                                                                                   000000000000
C4304AAMG009597                    952834236           FILPL FINANCIAL LLC                                                                                        H1                      X28347                                                                                                000000000000
C4305AAMG009597                    47560231630000000001                              0000000000016631D450 0000000000000000    0000000000000000    0000000000000832DHL 0000000000000832DST 0000000000000000    0000000000000000                                            20230609202306112023  000000000000
C4306AAMG009597                    75950W150001        0000000000016631D0000000000000000 0000000000000000 0000000000000000 0000000000000000 0000000000000000 000000000000000  000000000000000000                                   0000000000  0000000000                                       000000000000
C4307AAMG009597                    1HA NYOUNG                              ANN                      Y                                                                                                                       145302322           34                                              000000000000
C4308AAMG009597                       0000000000016631D0000000000000832D                                                  0000000000000832DC8                                                                                                                                                   000000000000
C4309AAMG009597                    3 DIANE DR                                                                                               PEDRICKTOWN                   NJ08067          US                                                                                                   000000000000
C4301AAMG010175                                                  201052979863                      75950W150VA2016102005020161108092                                 0075                MI           FIX                                                                                       000000000000
C4302AAMG010175                    1OK NLIASKOS                            JAMES                                                                                                                                            323300565           34                                              000000000000
C4303AAMG010175                    18531 WENTWORTH AVE APT 1F                                                                               LANSING                       IL60438          US                                                                                                   000000000000
C4304AAMG010175                                          PANNARALE                          GIUSEPPE                                                              H1                      N717268                                                                                               000000000000
C4305AAMG010175                    47560231630000000002                              0000000000015507D450 0000000000000000    0000000000000000    0000000000000000    0000000000000000    0000000000000000    0000000000000000                                            20230609202306112023  000000000000
C4306AAMG010175                    75950W150001        0000000000015507D0000000000000000 0000000000000000 0000000000000000 0000000000000000 0000000000000000 000000000000000  000000000000000000                                   0000000000  0000000000                                       000000000000
C4307AAMG010175                    1HA NLIASKOS                            JAMES                                                                                                                                            323300565           34                                              000000000000
C4308AAMG010175                       0000000000015507D0000000000000000                                                   0000000000000000 C8                                                                                                                                                   000000000000
C4309AAMG010175                    18531 WENTWORTH AVE APT 1F                                                                               LANSING                       IL60438          US                                                                                                   000000000000
C4301AAMG500566                                                  200054934948                      75950W150VA2016122705020161227092                                 0075                MI           FIX                                                                                       000000000000
C4302AAMG500566                    1BE NDI MADDALENA                       THERESA                                                                                                                                          022460101           34                                              000000000000
C4302AAMG500566                    1OK NDI MADDALENA                       JOSEPH                   R                                                                                                                       020489486           34                                              000000000000
C4303AAMG500566                    25 GROVE AVE                                                                                             BROCKTON                      MA02302          US                                                                                                   000000000000
C4304AAMG500566                                          HELFRICH                           MARK                     F                                            H1                      N7479094                                                                                              000000000000
C4305AAMG500566                    47560231630000000003                              0000000000061909D450 0000000000000000    0000000000000000    0000000000009286DHL 0000000000003157DST 0000000000000000    0000000000000000                                            20230610202306112023  000000000000
C4306AAMG500566                    75950W150001        0000000000061909D0000000000000000 0000000000000000 0000000000000000 0000000000000000 0000000000000000 000000000000000  000000000000000000                                   0000000000  0000000000                                       000000000000
C4307AAMG500566                    1HA NDI MADDALENA                       JOSEPH                   R                                                                                                                       020489486           34                                              000000000000
C4308AAMG500566                       0000000000061909D0000000000009286D                                                  0000000000003157DC8                                                                                                                                                   000000000000
C4309AAMG500566                    25 GROVE AVE                                                                                             BROCKTON                      MA02302          US                                                                                                   000000000000
C4301AAMG500567                                                  200051932755                      75950W150VA2016122705020161227092                                 0075                MI           FIX                                                                                       000000000000
C4302AAMG500567                    1BE NDI MADDALENA                       JOSEPH                   R                                                                                                                       020489486           34                                              000000000000
C4302AAMG500567                    1OK NDI MADDALENA                       THERESA                                                                                                                                          022460101           34                                              000000000000
C4303AAMG500567                    25 GROVE AVE                                                                                             BROCKTON                      MA02302          US                                                                                                   000000000000
C4304AAMG500567                                          HELFRICH                           MARK                     F                                            H1                      N7479094                                                                                              000000000000
C4305AAMG500567                    47560231630000000004                              0000000000104930D450 0000000000000000    0000000000000000    0000000000015740DHL 0000000000005351DST 0000000000000000    0000000000000000                                            20230610202306112023  000000000000
C4306AAMG500567                    75950W150001        0000000000104930D0000000000000000 0000000000000000 0000000000000000 0000000000000000 0000000000000000 000000000000000  000000000000000000                                   0000000000  0000000000                                       000000000000
C4307AAMG500567                    1HA NDI MADDALENA                       THERESA                                                                                                                                          022460101           34                                              000000000000
C4308AAMG500567                       0000000000104930D0000000000015740D                                                  0000000000005351DC8                                                                                                                                                   000000000000
C4309AAMG500567                    25 GROVE AVE                                                                                             BROCKTON                      MA02302          US                                                                                                   000000000000
C4301AAMGE00084                                                  200027313711                      75950W150VA2017063005020170703092                                 0075                MI           FIX                                                                                       000000000000
C4302AAMGE00084                    1OK NBRUMMETT                           LINDA                    S                                                                                                                       314445480           34                                              000000000000
C4303AAMGE00084                    2 VALLEY COURT                                                                                           MARION                        IN46953          US                                                                                                   000000000000
C4302AAMGE00084                    2BE XESTATE OF LINDA S BRUMMETT                                                                                                                                                                                                                              000000000000
C4304AAMGE00084                                          PAYNE                              CHRISTINA                S                                            H1                      N10099992                                                                                             000000000000
C4305AAMGE00084                    47560231630000000005GHWBKSKPLX001                 0000000000040000D450 0000000000000000    0000000000000000    0000000000004706DHL 0000000000002353DST 0000000000000000    0000000000000000                                            20230610202306112023  000000000000
C4306AAMGE00084                    75950W150001        0000000000047059D0000000000000000 0000000000000000 0000000000000000 0000000000000000 0000000000000000 000000000000000  000000000000000000                                   0000000000  0000000000                                       000000000000
C4307AAMGE00084                    1HA NBRUMMETT                           LINDA                    S                                                                                                                       314445480           34                                              000000000000
C4308AAMGE00084                       0000000000047059D0000000000004706D                                                  0000000000002353DC8                                                                                                                                                   000000000000
C4309AAMGE00084                    2 VALLEY COURT                                                                                           MARION                        IN46953          US                                                                                                   000000000000
C4301AAMI011740                                                  201046224227                      75950W150VA2014121605020141216092                                 0075                MI           FIX                                                                                       000000000000
C4302AAMI011740                    1BE NHECKER                             DONNA                                                                                                                                            285522322           34                                              000000000000
C4302AAMI011740                    1OK NMARO                               JOSEPH                   R                                                                                                                       268422141           34                                              000000000000
C4303AAMI011740                    520 MURRAY HILL DR                                                                                       YOUNGSTOWN                    OH44505          US                                                                                                   000000000000
C4304AAMI011740                                          DAY                                WILLIAM                  C                                            H1                      N2211480                                                                                              000000000000
C4305AAMI011740                    47560231630000000006                              0000000000005246D450 0000000000000000    0000000000000000    0000000000000000    0000000000000000    0000000000000000    0000000000000000                                            20230610202306112023  000000000000
C4306AAMI011740                    75950W150001        0000000000005246D0000000000000000 0000000000000000 0000000000000000 0000000000000000 0000000000000000 000000000000000  000000000000000000                                   0000000000  0000000000                                       000000000000
C4307AAMI011740                    1HA NMARO                               JOSEPH                   R                                                                                                                       268422141           34                                              000000000000
C4308AAMI011740                       0000000000005246D0000000000000000                                                   0000000000000000 C8                                                                                                                                                   000000000000
C4309AAMI011740                    520 MURRAY HILL DR                                                                                       YOUNGSTOWN                    OH44505          US                                                                                                   000000000000
C4301AAMI502867                                                  20006QB622402                     75950W150VA2016020505020160205092                                 0075                MI           FIX                                                                                       000000000000
C4302AAMI502867                    1OK NPETERSON                           CHARLOTTE                                                                                                                                        229682925           34                                              000000000000
C4303AAMI502867                    9331 STAGG RUN RD                                                                                        CHARLES CITY                  VA23030          US                                                                                                   000000000000
C4304AAMI502867                                          COLLINS                            JAMES                    FREDERICK                                    H1                      N8102144                                                                                              000000000000
C4305AAMI502867                    47560231630000000007                              0000000000036179D450 0000000000000000    0000000000000000    0000000000007236DHL 0000000000001809DST 0000000000000000    0000000000000000                                            20230610202306112023  000000000000
C4306AAMI502867                    75950W150001        0000000000036179D0000000000000000 0000000000000000 0000000000000000 0000000000000000 0000000000000000 000000000000000  000000000000000000                                   0000000000  0000000000                                       000000000000
C4307AAMI502867                    1HA NPETERSON                           CHARLOTTE                                                                                                                                        229682925           34                                              000000000000
C4308AAMI502867                       0000000000036179D0000000000007236D                                                  0000000000001809DC8                                                                                                                                                   000000000000
C4309AAMI502867                    9331 STAGG RUN RD                                                                                        CHARLES CITY                  VA23030          US                                                                                                   000000000000
C4301AAMIE00907                                                  201060851824                      75950W150VA2021040505020210409092                                 0075                MI           FIX                                                                                       000000000000
C4302AAMIE00907                    1G2 NMOSHER                             EDNA                     G                                                                                                                       002324493           34                                              000000000000
C4303AAMIE00907                    97 NIMBLE HILL ROAD                                                                                      NEWINGTON                     NH03801          US                                                                                                   000000000000
C4302AAMIE00907                    2BE XTHE EDNA G MOSHER REVOCAB                                                                                                                                                           002324493           FI                                              000000000000
C4302AAMIE00907                    2HA XTHE EDNA G MOSHER REVOCABLE TRUST OF 2001                                                                                                                                           002324493           FI                                              000000000000
C4303AAMIE00907                    97 NIMBLE HILL ROAD                                                                                      NEWINGTON                     NH03801          US                                                                                                   000000000000
C4304AAMIE00907                                          SILK                               ZACHARY                                                               RM                      N19105606                                                                                             000000000000
C4304AAMIE00907                                          SILK                               DON                      M                                            RM                      N711677                                                                                               000000000000
C4304AAMIE00907                                          CURTIS                             PHILLIP                  A                                            RM                      N17152169                                                                                             000000000000
C4305AAMIE00907                    47560231630000000008HSRB6I4JTG001                 0000000000064509D450 0000000000000000    0000000000000000    0000000000000000    0000000000000000    0000000000000000    0000000000000000                                            20230610202306112023  000000000000
C4306AAMIE00907                    75950W150001        0000000000064509D0000000000000000 0000000000000000 0000000000000000 0000000000000000 0000000000000000 000000000000000  000000000000000000                                   0000000000  0000000000                                       000000000000
C4307AAMIE00907                    2HA XTHE EDNA G MOSHER REVOCABLE TRUST OF 2001                                                                                                                                           002324493           FI                                              000000000000
C4308AAMIE00907                       0000000000064509D0000000000000000                                                   0000000000000000 C8                                                                                                                                                   000000000000
C4309AAMIE00907                    97 NIMBLE HILL ROAD                                                                                      NEWINGTON                     NH03801          US                                                                                                   000000000000
C4301AAMIP00021                                                  201041686452                      75950W150VA2017022705020170227092                                 0075                MI           FIX                                                                                       000000000000
C4302AAMIP00021                    1BE NSOLOMON                            TERESA                                                                                                                                                                                                               000000000000
C4302AAMIP00021                    1BE NROBINETTE                          TRINE                                                                                                                                                                                                                000000000000
C4302AAMIP00021                    1OK NROBINETTE                          RUTH                                                                                                                                             414647012           34                                              000000000000
C4303AAMIP00021                    300 SLEEPY HOLLOW LANE                                                                                   GREENEVILLE                   TN37745          US                                                                                                   000000000000
C4304AAMIP00021                                          CAMPBELL                           WILLIAM                  RAY                                          H1                      N5951795                                                                                              000000000000
C4305AAMIP00021                    47560231630000000009                              0000000004924539D450 0000000000097334DSR 0000000000057863D66 0000000000000000    0000000000000000    0000000000000000    0000000000000000                                            20230609202306112023  000000000000
C4306AAMIP00021                    75950W150001        0000000004924539D0000000000000000 0000000000000000 0000000000000000 0000000000000000 0000000000000000 000000000000000  000000000000000000                                   0000000000  0000000000                                       000000000000
C4307AAMIP00021                    1HA NROBINETTE                          RUTH                                                                                                                                             414647012           34                                              000000000000
C4308AAMIP00021                       0000000004924539D0000000000000000                                                   0000000000000000 C8                                                                                                                                                   000000000000
C4309AAMIP00021                    300 SLEEPY HOLLOW LANE                                                                                   GREENEVILLE                   TN37745                                                                                                               000000000000
C4301AAMIP00431                                                  201033736813                      75950W150SU201708040502017080909220230609279                      0075                MI           FIX                                                                                       000000000000
C4302AAMIP00431                    1BE NCANO                               SARA E                                                                                                                                                                                                               000000000000
C4302AAMIP00431                    1HC NPERRY                              JANET                                                                                                                                            334448136           34                                              000000000000
C4303AAMIP00431                    13083 CADES CV                                                                                           OLIVE BRANCH                  MS38654          US                                                                                                   000000000000
C4302AAMIP00431                    1JV NPERRY                              JANET                                                                                                                                            334448136           34                                              000000000000
C4303AAMIP00431                    13083 CADES CV                                                                                           OLIVE BRANCH                  MS38654          US                                                                                                   000000000000
C4302AAMIP00431                    1OK NPERRY                              FREDRICK                 E                                                                                                                       322422402           34                                              000000000000
C4303AAMIP00431                    13083 CADES CV                                                                                           OLIVE BRANCH                  MS38654          US                                                                                                   000000000000
C4304AAMIP00431                                          PENDLETON                          GREGORY                  JAMES                                        H1                      N12392445                                                                                             000000000000
C4305AAMIP00431                    47560231630000000010                              0000000004312522D133 0000000000168652DSR 0000000000096223D66 0000000000000000    0000000000000000    0000000000000000    0000000000000000                                            20230609202306112023  000000000000
C4306AAMIP00431                    75950W150001        0000000004312522D0000000000000000 0000000000000000 0000000000000000 0000000000000000 0000000000000000 000000000000000  000000000000000000                                   0000000000  0000000000                                       000000000000
C4307AAMIP00431                    1HA NPERRY                              FREDRICK                 E                                                                                                                       322422402           34                                              000000000000
C4308AAMIP00431                       0000000004312522D0000000000000000                                                   0000000000000000 C8                                                                                                                                                   000000000000
C4309AAMIP00431                    13083 CADES CV                                                                                           OLIVE BRANCH                  MS38654                                                                                                               000000000000
C4301AASI500482                                                  200044296952                      75950W168VA2015090105020150901092                                 0075                MI           FIX                                                                                       000000000000
C4302AASI500482                    1BE NFISCHER                            JAMES                    A                                                                                                                       475567373           34                                              000000000000
C4302AASI500482                    1OK NFISCHER                            ELIZABETH                J                                                                                                                       477561383           34                                              000000000000
C4303AASI500482                    297 SUNSET CT                                                                                            ALBANY                        MN56307          US                                                                                                   000000000000
C4304AASI500482                                          SCHWIETERS                         MICHAEL                                                               H1                      N15760094                                                                                             000000000000
C4305AASI500482                    47560231630000000011                              0000000000170768D450 0000000000000000    0000000000000000    0000000000000000    0000000000000000    0000000000000000    0000000000000000                                            20230610202306112023  000000000000
C4306AASI500482                    75950W168001        0000000000170768D0000000000000000 0000000000000000 0000000000000000 0000000000000000 0000000000000000 000000000000000  000000000000000000                                   0000000000  0000000000                                       000000000000
C4307AASI500482                    1HA NFISCHER                            ELIZABETH                J                                                                                                                       477561383           34                                              000000000000
C4308AASI500482                       0000000000170768D0000000000000000                                                   0000000000000000 C8                                                                                                                                                   000000000000
C4309AASI500482                    297 SUNSET CT                                                                                            ALBANY                        MN56307                                                                                                               000000000000
C4301AASIE00108                                                  200015964140                      75950W168VA2017071705020170718092                                 0075                MI           FIX                                                                                       000000000000
C4302AASIE00108                    1BE NSIMMER                             SALLY                                                                                                                                                                                                                000000000000
C4302AASIE00108                    1G5 NROBINSON                           JENNINE                                                                                                                                                                                                              000000000000
C4302AASIE00108                    1G5 NSIMMER                             JEROME                                                                                                                                                                                                               000000000000
C4302AASIE00108                    1OK NSIMMER                             JEROME                                                                                                                                           475502478           34                                              000000000000
C4303AASIE00108                    4211 E REGINA AVENUE                                                                                     MEAD                          WA99021          US                                                                                                   000000000000
C4304AASIE00108                                          HANSEN                             PHILLIP                  D                                            H1                      N8987394                                                                                              000000000000
C4305AASIE00108                    47560231630000000012RE006334740                   0000000000152248D450 0000000000000000    0000000000000000    0000000000030450DHL 0000000000000000    0000000000000000    0000000000000000                                            20230610202306112023  000000000000
C4306AASIE00108                    75950W168001        0000000000152248D0000000000000000 0000000000000000 0000000000000000 0000000000000000 0000000000000000 000000000000000  000000000000000000                                   0000000000  0000000000                                       000000000000
C4307AASIE00108                    1HA NSIMMER                             JEROME                                                                                                                                           475502478           34                                              000000000000
C4308AASIE00108                       0000000000152248D0000000000030450D                                                  0000000000000000 C8                                                                                                                                                   000000000000
C4309AASIE00108                    4211 E REGINA AVENUE                                                                                     MEAD                          WA99021                                                                                                               000000000000
C4301AASIE00205                                                  200015434501                      75950W168VA2018100105020181003092                                 0075                MI           FIX                                                                                       000000000000
C4302AASIE00205                    1BE NPORTER                             THOMAS                                                                                                                                           526636751           34                                              000000000000
C4302AASIE00205                    1OK NPORTER                             CYNDI                    A                                                                                                                       529885353           34                                              000000000000
C4303AASIE00205                    2771 ZANE GREY BLVD/PO BOX 631                                                                           OVERGAARD                     AZ85933          US                                                                                                   000000000000
C4304AASIE00205                                          SHINSKE                            JOSEPH                   FRANCIS                            III       H1                      N6747700                                                                                              000000000000
C4305AASIE00205                    47560231630000000013RSL001530884                  0000000000030000D450 0000000000000000    0000000000000000    0000000000000000    0000000000000000    0000000000000000    0000000000000000                                            20230610202306112023  000000000000
C4306AASIE00205                    75950W168001        0000000000030000D0000000000000000 0000000000000000 0000000000000000 0000000000000000 0000000000000000 000000000000000  000000000000000000                                   0000000000  0000000000                                       000000000000
C4307AASIE00205                    1HA NPORTER                             CYNDI                    A                                                                                                                       529885353           34                                              000000000000
C4308AASIE00205                       0000000000030000D0000000000000000                                                   0000000000000000 C8                                                                                                                                                   000000000000
C4309AASIE00205                    2771 ZANE GREY BLVD/PO BOX 631                                                                           OVERGAARD                     AZ85933                                                                                                               000000000000
C4301ATMG007421                                                  200041066818                      75950W135VA2013100105020131016092                                 0075                MI           FIX                                                                                       000000000000
C4302ATMG007421                    1OK NGOLDSTEIN                          PHYLLIS                                                                                                                                          012262693           34                                              000000000000
C4303ATMG007421                    9 NIXON ST                                                                                               CUMBERLAND                    RI02864          US                                                                                                   000000000000
C4304ATMG007421                                          HELFRICH                           MARK                     F                                            H1                      N7479094                                                                                              000000000000
C4305ATMG007421                    47560231630000000014                              0000000000300000D450 0000000000000000    0000000000000000    0000000000000000    0000000000000000    0000000000000000    0000000000000000                                            20230611202306112023  000000000000
C4306ATMG007421                    75950W135001        0000000000300000D0000000000000000 0000000000000000 0000000000000000 0000000000000000 0000000000000000 000000000000000  000000000000000000                                   0000000000  0000000000                                       000000000000
C4307ATMG007421                    1HA NGOLDSTEIN                          PHYLLIS                                                                                                                                          012262693           34                                              000000000000
C4308ATMG007421                       0000000000300000D0000000000000000                                                   0000000000000000 C8                                                                                                                                                   000000000000
C4309ATMG007421                    9 NIXON ST                                                                                               CUMBERLAND                    RI02864          US                                                                                                   000000000000
C4301ATMG009660                                                  201079456368                      75950W135VA2015061805020150618092                                 0075                MI           FIX                                                                                       000000000000
C4302ATMG009660                    1HC NGOODPASTURE                        CAROLYN                  S                                                                                                                       303624134           34                                              000000000000
C4303ATMG009660                    3238 E. 1200 S                                                                                           LAFONTAINE                    IN46940          US                                                                                                   000000000000
C4302ATMG009660                    1JV NGOODPASTURE                        CAROLYN                  S                                                                                                                       303624134           34                                              000000000000
C4303ATMG009660                    3238 E. 1200 S                                                                                           LAFONTAINE                    IN46940          US                                                                                                   000000000000
C4302ATMG009660                    1OK NGOODPASTURE                        ROBERT                   L                                                                                                                       309586227           34                                              000000000000
C4303ATMG009660                    3238 E. 1200 S                                                                                           LAFONTAINE                    IN46940          US                                                                                                   000000000000
C4304ATMG009660                                          PAYNE                              CHRISTINA                S                                            H1                      N10099992                                                                                             000000000000
C4305ATMG009660                    47560231630000000015                              0000000000011172D450 0000000000000000    0000000000000000    0000000000000000    0000000000000000    0000000000000000    0000000000000000                                            20230610202306112023  000000000000
C4306ATMG009660                    75950W135001        0000000000011172D0000000000000000 0000000000000000 0000000000000000 0000000000000000 0000000000000000 000000000000000  000000000000000000                                   0000000000  0000000000                                       000000000000
C4307ATMG009660                    1HA NGOODPASTURE                        ROBERT                   L                                                                                                                       309586227           34                                              000000000000
C4308ATMG009660                       0000000000011172D0000000000000000                                                   0000000000000000 C8                                                                                                                                                   000000000000
C4309ATMG009660                    3238 E. 1200 S                                                                                           LAFONTAINE                    IN46940          US                                                                                                   000000000000
C4301ATMG010060                                                  200016539256                      75950W135VA2016083105020161129092                                 0075                MI           FIX                                                                                       000000000000
C4302ATMG010060                    1OK NAGUIAR                             JOHN                                                                                                                                             024487062           34                                              000000000000
C4303ATMG010060                    69 JANE AVE                                                                                              FITCHBURG                     MA01420          US                                                                                                   000000000000
C4304ATMG010060                                          THOMPSON                           JON                      REECE                                        H1                      N838658                                                                                               000000000000
C4305ATMG010060                    47560231630000000016                              0000000000018502D450 0000000000000000    0000000000000000    0000000000001850DHL 0000000000000944DST 0000000000000000    0000000000000000                                            20230611202306112023  000000000000
C4306ATMG010060                    75950W135001        0000000000018502D0000000000000000 0000000000000000 0000000000000000 0000000000000000 0000000000000000 000000000000000  000000000000000000                                   0000000000  0000000000                                       000000000000
C4307ATMG010060                    1HA NAGUIAR                             JOHN                                                                                                                                             024487062           34                                              000000000000
C4308ATMG010060                       0000000000018502D0000000000001850D                                                  0000000000000944DC8                                                                                                                                                   000000000000
C4309ATMG010060                    69 JANE AVE                                                                                              FITCHBURG                     MA01420          US                                                                                                   000000000000
C4301ATMG500474                                                  200054934948                      75950W135VA2016042605020160426092                                 0075                MI           FIX                                                                                       000000000000
C4302ATMG500474                    1BE NDI MADDALENA                       THERESA                                                                                                                                          022460101           34                                              000000000000
C4302ATMG500474                    1OK NDI MADDALENA                       JOSEPH                   R                                                                                                                       020489486           34                                              000000000000
C4303ATMG500474                    25 GROVE AVE                                                                                             BROCKTON                      MA02302          US                                                                                                   000000000000
C4304ATMG500474                                          HELFRICH                           MARK                     F                                            H1                      N7479094                                                                                              000000000000
C4305ATMG500474                    47560231630000000017                              0000000000059559D450 0000000000000000    0000000000000000    0000000000008934DHL 0000000000003038DST 0000000000000000    0000000000000000                                            20230610202306112023  000000000000
C4306ATMG500474                    75950W135001        0000000000059559D0000000000000000 0000000000000000 0000000000000000 0000000000000000 0000000000000000 000000000000000  000000000000000000                                   0000000000  0000000000                                       000000000000
C4307ATMG500474                    1HA NDI MADDALENA                       JOSEPH                   R                                                                                                                       020489486           34                                              000000000000
C4308ATMG500474                       0000000000059559D0000000000008934D                                                  0000000000003038DC8                                                                                                                                                   000000000000
C4309ATMG500474                    25 GROVE AVE                                                                                             BROCKTON                      MA02302          US                                                                                                   000000000000
C4301ATMGE01090                                                  201072958040                      75950W135VA2019022605020190311092                                 0075                MI           FIX                                                                                       000000000000
C4302ATMGE01090                    1BE NDILLON                             NINA                     M                                                                                                                       315628042           34                                              000000000000
C4302ATMGE01090                    1G5 NYOKEM                              LINDSEY                  A                                                                                                                                                                                           000000000000
C4302ATMGE01090                    1G5 NYOKEM                              SHANIA                                                                                                                                                                                                               000000000000
C4302ATMGE01090                    1G5 NCRANEY                             WILLIAM                  B                                                                                                                       316152578           34                                              000000000000
C4302ATMGE01090                    1OK NDILLON                             MARK                     D                                                                                                                       306629521           34                                              000000000000
C4303ATMGE01090                    5388 S 800 E                                                                                             MONTOGOMERY                   IN47558          US                                                                                                   000000000000
C4304ATMGE01090                                          KNEPP                              ALEX                     MICHAEL                                      H1                      N8834549                                                                                              000000000000
C4305ATMGE01090                    47560231630000000018G2UWCG6BMX001                 0000000000009809D450 0000000000000000    0000000000000000    0000000000000000    0000000000000000    0000000000000000    0000000000000000                                            20230611202306112023  000000000000
C4306ATMGE01090                    75950W135001        0000000000009809D0000000000000000 0000000000000000 0000000000000000 0000000000000000 0000000000000000 000000000000000  000000000000000000                                   0000000000  0000000000                                       000000000000
C4307ATMGE01090                    1HA NDILLON                             MARK                     D                                                                                                                       306629521           34                                              000000000000
C4308ATMGE01090                       0000000000009809D0000000000000000                                                   0000000000000000 C8                                                                                                                                                   000000000000
C4309ATMGE01090                    5388 S 800 E                                                                                             MONTOGOMERY                   IN47558          US                                                                                                   000000000000
C4301ATMGE01556                                                  201011541500                      75950W135VA2019111405020191209092                                 0075                MI           FIX                                                                                       000000000000
C4302ATMGE01556                    1BE NCOFFEY                             MARY                                                                                                                                             304438309           34                                              000000000000
C4302ATMGE01556                    1G5 NCOFFEY                             BRIAN                                                                                                                                                                                                                000000000000
C4302ATMGE01556                    1G5 NCOFFEY                             DAVID                                                                                                                                                                                                                000000000000
C4302ATMGE01556                    1G5 NCOFFEY                             LARRY                                                                                                                                                                                                                000000000000
C4302ATMGE01556                    1OK NCOFFEY                             EARL                                                                                                                                             281304794           34                                              000000000000
C4303ATMGE01556                    13501 N SUMMERHILL DR                                                                                    ALBANY                        IN47320          US                                                                                                   000000000000
C4304ATMGE01556                                          LOGAN                              BILLIE                   LYN                                          H1                      N16809747                                                                                             000000000000
C4305ATMGE01556                    47560231630000000019HCWKCDZBJ7001                 0000000000029434D450 0000000000000000    0000000000000000    0000000000000000    0000000000000000    0000000000000000    0000000000000000                                            20230609202306112023  000000000000
C4306ATMGE01556                    75950W135001        0000000000029434D0000000000000000 0000000000000000 0000000000000000 0000000000000000 0000000000000000 000000000000000  000000000000000000                                   0000000000  0000000000                                       000000000000
C4307ATMGE01556                    1HA NCOFFEY                             EARL                                                                                                                                             281304794           34                                              000000000000
C4308ATMGE01556                       0000000000029434D0000000000000000                                                   0000000000000000 C8                                                                                                                                                   000000000000
C4309ATMGE01556                    13501 N SUMMERHILL DR                                                                                    ALBANY                        IN47320          US                                                                                                   000000000000
C4301ATMGE03299                                                  200070930575                      75950W135VA2021082705020211021092                                 0075                MI           FIX                                                                                       000000000000
C4302ATMGE03299                    1BE NWISE                               THOMAS                                                                                                                                           310466748           34                                              000000000000
C4302ATMGE03299                    1OK NWISE                               GLENDA                   F                                                                                                                       316487724           34                                              000000000000
C4303ATMGE03299                    3044 E 50 N                                                                                              PRINCETON                     IN47670          US                                                                                                   000000000000
C4304ATMGE03299                                          DEVINE                             DANIEL                   PAUL                                         H1                      N7705502                                                                                              000000000000
C4305ATMGE03299                    47560231630000000020HXEB5GKH2N001                 0000000000003564D450 0000000000000000    0000000000000000    0000000000000000    0000000000000000    0000000000000000    0000000000000000                                            20230611202306112023  000000000000
C4306ATMGE03299                    75950W135001        0000000000003564D0000000000000000 0000000000000000 0000000000000000 0000000000000000 0000000000000000 000000000000000  000000000000000000                                   0000000000  0000000000                                       000000000000
C4307ATMGE03299                    1HA NWISE                               GLENDA                   F                                                                                                                       316487724           34                                              000000000000
C4308ATMGE03299                       0000000000003564D0000000000000000                                                   0000000000000000 C8                                                                                                                                                   000000000000
C4309ATMGE03299                    3044 E 50 N                                                                                              PRINCETON                     IN47670          US                                                                                                   000000000000
C4301ATMGE03697                                                  201022726090                      75950W135VA2021120205020211206092                                 0075                MI           FIX                                                                                       000000000000
C4302ATMGE03697                    1BE NSCHOCH                             CRAIG                    P                                                                                                                                                                                           000000000000
C4302ATMGE03697                    1BE NDAY                                VALERIE                  A                                                                                                                                                                                           000000000000
C4302ATMGE03697                    1OK NSCHOCH                             WINDA                    M                                                                                                                       207326496           34                                              000000000000
C4303ATMGE03697                    126 SOMERSET AVE                                                                                         ELYSBURG                      PA17824          US                                                                                                   000000000000
C4304ATMGE03697                                          SURAK                              GARY                                                                  H1                      N2053370                                                                                              000000000000
C4305ATMGE03697                    47560231630000000021RSL003514232                  0000000000004730D450 0000000000000000    0000000000000000    0000000000000000    0000000000000000    0000000000000000    0000000000000000                                            20230610202306112023  000000000000
C4306ATMGE03697                    75950W135001        0000000000004730D0000000000000000 0000000000000000 0000000000000000 0000000000000000 0000000000000000 000000000000000  000000000000000000                                   0000000000  0000000000                                       000000000000
C4307ATMGE03697                    1HA NSCHOCH                             WINDA                    M                                                                                                                       207326496           34                                              000000000000
C4308ATMGE03697                       0000000000004730D0000000000000000                                                   0000000000000000 C8                                                                                                                                                   000000000000
C4309ATMGE03697                    126 SOMERSET AVE                                                                                         ELYSBURG                      PA17824                                                                                                               000000000000
C4301ATMGE03782                                                  200070930575                      75950W135VA2022011105020220112092                                 0075                MI           FIX                                                                                       000000000000
C4302ATMGE03782                    1BE NWISE                               THOMAS                                                                                                                                           310466748           34                                              000000000000
C4302ATMGE03782                    1OK NWISE                               GLENDA                   F                                                                                                                       316487724           34                                              000000000000
C4303ATMGE03782                    3044 E 50 N                                                                                              PRINCETON                     IN47670          US                                                                                                   000000000000
C4304ATMGE03782                                          DEVINE                             DANIEL                   PAUL                                         H1                      N7705502                                                                                              000000000000
C4305ATMGE03782                    47560231630000000022H3OCC75MBN001                 0000000000021790D450 0000000000000000    0000000000000000    0000000000000000    0000000000000000    0000000000000000    0000000000000000                                            20230611202306112023  000000000000
C4306ATMGE03782                    75950W135001        0000000000021790D0000000000000000 0000000000000000 0000000000000000 0000000000000000 0000000000000000 000000000000000  000000000000000000                                   0000000000  0000000000                                       000000000000
C4307ATMGE03782                    1HA NWISE                               GLENDA                   F                                                                                                                       316487724           34                                              000000000000
C4308ATMGE03782                       0000000000021790D0000000000000000                                                   0000000000000000 C8                                                                                                                                                   000000000000
C4309ATMGE03782                    3044 E 50 N                                                                                              PRINCETON                     IN47670          US                                                                                                   000000000000
C4301ATMGE04395                                                  201043832970                      75950W135VA2022071105020220817092                                 0075                MI           FIX                                                                                       000000000000
C4302ATMGE04395                    1BE NOVERK                              LARA                     C                                                                                                                       183661323           34                                              000000000000
C4302ATMGE04395                    1OK NCARROLL                            JAMES                    A                                                                                                                       167304178           34                                              000000000000
C4303ATMGE04395                    155 POWELL ROAD                                                                                          SPRINGFIELD                   PA19064          US                                                                                                   000000000000
C4304ATMGE04395                                          ZIMMERMAN                          DANIEL                   MICHAEL                                      H1                      N7974818                                                                                              000000000000
C4305ATMGE04395                    47560231630000000023IAYZBW2BTQ001                 0000000000015875D450 0000000000000000    0000000000000000    0000000000000000    0000000000000000    0000000000000000    0000000000000000                                            20230611202306112023  000000000000
C4306ATMGE04395                    75950W135001        0000000000015875D0000000000000000 0000000000000000 0000000000000000 0000000000000000 0000000000000000 000000000000000  000000000000000000                                   0000000000  0000000000                                       000000000000
C4307ATMGE04395                    1HA NCARROLL                            JAMES                    A                                                                                                                       167304178           34                                              000000000000
C4308ATMGE04395                       0000000000015875D0000000000000000                                                   0000000000000000 C8                                                                                                                                                   000000000000
C4309ATMGE04395                    155 POWELL ROAD                                                                                          SPRINGFIELD                   PA19064          US                                                                                                   000000000000
C4301ATMGE05023                                                  201010006900                      75950W135VA2023020305020230208092                                 0075                MI           FIX                                                                                       000000000000
C4302ATMGE05023                    1BE NBRICKNER                           JAMES                    C                                                                                                                       194362164           34                                              000000000000
C4302ATMGE05023                    1G5 NHUBER                              LORI                     C                                                                                                                       209649366           34                                              000000000000
C4302ATMGE05023                    1OK NBRICKNER                           CHERYL                   L                                                                                                                       183403037           34                                              000000000000
C4303ATMGE05023                    145 WEAVER ST                                                                                            FRANKLIN                      PA16323          US                                                                                                   000000000000
C4304ATMGE05023                                          KADYLAK                            THOMAS                                                                H1                      N18681378                                                                                             000000000000
C4305ATMGE05023                    47560231630000000024IHSB626T35001                 0000000000022862D450 0000000000000000    0000000000000000    0000000000002286DHL 0000000000000000    0000000000000000    0000000000000000                                            20230610202306112023  000000000000
C4306ATMGE05023                    75950W135001        0000000000022862D0000000000000000 0000000000000000 0000000000000000 0000000000000000 0000000000000000 000000000000000  000000000000000000                                   0000000000  0000000000                                       000000000000
C4307ATMGE05023                    1HA NBRICKNER                           CHERYL                   L                                                                                                                       183403037           34                                              000000000000
C4308ATMGE05023                       0000000000022862D0000000000002286D                                                  0000000000000000 C8                                                                                                                                                   000000000000
C4309ATMGE05023                    145 WEAVER ST                                                                                            FRANKLIN                      PA16323          US                                                                                                   000000000000
C4301ATMGP01249                                                  200074299239                      75950W135VA2020081705020200831092                                 0075                MI           FIX                                                                                       000000000000
C4302ATMGP01249                    1BE NMANTICH                            EDWARD                                                                                                                                           171267569           34                                              000000000000
C4302ATMGP01249                    1BE NMARLEY                             JOHN                                                                                                                                             194568516           34                                              000000000000
C4302ATMGP01249                    1BE NTORTORICE                          KATHY                                                                                                                                            191488913           34                                              000000000000
C4302ATMGP01249                    1BE NMARLEY                             PATRICIA                                                                                                                                         160460941           34                                              000000000000
C4302ATMGP01249                    1OK NSEDLAK                             AUDREY                   J                                                                                                                       164307918           34                                              000000000000
C4303ATMGP01249                    36 ROXBURY DR                                                                                            PITTSBURGH                    PA15221          US                                                                                                   000000000000
C4304ATMGP01249                                          PRIORE                             DAVID                    RICHARD                                      H1                      N2027652                                                                                              000000000000
C4305ATMGP01249                    47560231630000000025                              0000000000426946D450 0000000000000000    0000000000000000    0000000000064042DHL 0000000000000000    0000000000000000    0000000000000000                                            20230609202306112023  000000000000
C4306ATMGP01249                    75950W135001        0000000000426946D0000000000000000 0000000000000000 0000000000000000 0000000000000000 0000000000000000 000000000000000  000000000000000000                                   0000000000  0000000000                                       000000000000
C4307ATMGP01249                    1HA NSEDLAK                             AUDREY                   J                                                                                                                       164307918           34                                              000000000000
C4308ATMGP01249                       0000000000426946D0000000000064042D                                                  0000000000000000 C8                                                                                                                                                   000000000000
C4309ATMGP01249                    36 ROXBURY DR                                                                                            PITTSBURGH                    PA15221          US                                                                                                   000000000000
C4301ATMGP01325                                                  200049383201                      75950W135VA2020111005020201111092                                 0075                MI           FIX                                                                                       000000000000
C4302ATMGP01325                    1BE NGREATHOUSE                         JILL                                                                                                                                                                                                                 000000000000
C4302ATMGP01325                    1OK NHOLMAN                             DOUGLAS                                                                                                                                          311700102           34                                              000000000000
C4303ATMGP01325                    188 OAK DRIVE                                                                                            SCOTTSBURG                    IN47170          US                                                                                                   000000000000
C4304ATMGP01325                                          LEWIS                              ERNIE                    G                                            H1                      N10381855                                                                                             000000000000
C4305ATMGP01325                    47560231630000000026                              0000000000003563D450 0000000000000000    0000000000000000    0000000000000000    0000000000000000    0000000000000000    0000000000000000                                            20230610202306112023  000000000000
C4306ATMGP01325                    75950W135001        0000000000003563D0000000000000000 0000000000000000 0000000000000000 0000000000000000 0000000000000000 000000000000000  000000000000000000                                   0000000000  0000000000                                       000000000000
C4307ATMGP01325                    1HA NHOLMAN                             DOUGLAS                                                                                                                                          311700102           34                                              000000000000
C4308ATMGP01325                       0000000000003563D0000000000000000                                                   0000000000000000 C8                                                                                                                                                   000000000000
C4309ATMGP01325                    188 OAK DRIVE                                                                                            SCOTTSBURG                    IN47170                                                                                                               000000000000
C4301ATMI003452                                                  200017849760                      75950W135VA2009060905020090609092                                 0075                MI           FIX                                                                                       000000000000
C4302ATMI003452                    1OK NKODESH                             BETTY                    J                                                                                                                       391445271           34                                              000000000000
C4303ATMI003452                    2648 18 3/4 ST                                                                                           RICE LAKE                     WI54868          US                                                                                                   000000000000
C4304ATMI003452                                          MAZUR                              NOAH                                                                  H1                      N6932057                                                                                              000000000000
C4305ATMI003452                    47560231630000000027                              0000000000110000D450 0000000000000000    0000000000000000    0000000000022000DHL 0000000000016500DST 0000000000000000    0000000000000000                                            20230609202306112023  000000000000
C4306ATMI003452                    75950W135002        0000000000148500D0000000000000000 0000000000000000 0000000000000000 0000000000000000 0000000000000000 000000000000000  000000000000000000                                   0000000000  0000000000                                       000000000000
C4307ATMI003452                    1HA NKODESH                             BETTY                    J                                                                                                                       391445271           34                                              000000000000
C4308ATMI003452                       0000000000148500D0000000000022000D                                                  0000000000016500DC8                                                                                                                                                   000000000000
C4309ATMI003452                    2648 18 3/4 ST                                                                                           RICE LAKE                     WI54868          US                                                                                                   000000000000
C4301ATMI008725                                                  201060016936                      75950W135VA2011090905020110909092                                 0075                MI           FIX                                                                                       000000000000
C4302ATMI008725                    1OK NTOON                               SALOMEA                  R                                                                                                                       312304334           34                                              000000000000
C4303ATMI008725                    501 W VANDERBILT DR                                                                                      OAK RIDGE                     TN37830          US                                                                                                   000000000000
C4304ATMI008725                                          THOMPSON                           JON                      REECE                                        H1                      N838658                                                                                               000000000000
C4305ATMI008725                    47560231630000000028                              0000000000016833D450 0000000000000000    0000000000000000    0000000000000000    0000000000000000    0000000000000000    0000000000000000                                            20230609202306112023  000000000000
C4306ATMI008725                    75950W135001        0000000000016833D0000000000000000 0000000000000000 0000000000000000 0000000000000000 0000000000000000 000000000000000  000000000000000000                                   0000000000  0000000000                                       000000000000
C4307ATMI008725                    1HA NTOON                               SALOMEA                  R                                                                                                                       312304334           34                                              000000000000
C4308ATMI008725                       0000000000016833D0000000000000000                                                   0000000000000000 C8                                                                                                                                                   000000000000
C4309ATMI008725                    501 W VANDERBILT DR                                                                                      OAK RIDGE                     TN37830          US                                                                                                   000000000000
C4301ATMI015566                                                  200057195371                      75950W135VA2013061805020130709092                                 0075                MI           FIX                                                                                       000000000000
C4302ATMI015566                    1OK NMORITZ                             RITA                                                                                                                                             515429927           34                                              000000000000
C4303ATMI015566                    605 REDWOOD ST                                                                                           CAWKER CITY                   KS67430          US                                                                                                   000000000000
C4304ATMI015566                                          SHOEMAKER                          DENNIS                   W                                            H1                      N4917465                                                                                              000000000000
C4305ATMI015566                    47560231630000000029                              0000000000031000D450 0000000000000000    0000000000000000    0000000000000000    0000000000000000    0000000000000000    0000000000000000                                            20230609202306112023  000000000000
C4306ATMI015566                    75950W135001        0000000000031000D0000000000000000 0000000000000000 0000000000000000 0000000000000000 0000000000000000 000000000000000  000000000000000000                                   0000000000  0000000000                                       000000000000
C4307ATMI015566                    1HA NMORITZ                             RITA                                                                                                                                             515429927           34                                              000000000000
C4308ATMI015566                       0000000000031000D0000000000000000                                                   0000000000000000 C8                                                                                                                                                   000000000000
C4309ATMI015566                    605 REDWOOD ST                                                                                           CAWKER CITY                   KS67430          US                                                                                                   000000000000
C4301ATMI016904                                                  200026993539                      75950W135VA2013090905020130909092                                 0075                MI           FIX                                                                                       000000000000
C4302ATMI016904                    1OK NBARRINGER                          BARRY                                                                                                                                            395427539           34                                              000000000000
C4303ATMI016904                    W 8015 CTY KK                                                                                            ELLSWORTH                     WI54011          US                                                                                                   000000000000
C4304ATMI016904                                          MAZUR                              NOAH                                                                  H1                      N6932057                                                                                              000000000000
C4305ATMI016904                    47560231630000000030                              0000000000010044D450 0000000000000000    0000000000000000    0000000000000000    0000000000000000    0000000000000000    0000000000000000                                            20230609202306112023  000000000000
C4306ATMI016904                    75950W135001        0000000000010044D0000000000000000 0000000000000000 0000000000000000 0000000000000000 0000000000000000 000000000000000  000000000000000000                                   0000000000  0000000000                                       000000000000
C4307ATMI016904                    1HA NBARRINGER                          BARRY                                                                                                                                            395427539           34                                              000000000000
C4308ATMI016904                       0000000000010044D0000000000000000                                                   0000000000000000 C8                                                                                                                                                   000000000000
C4309ATMI016904                    W 8015 CTY KK                                                                                            ELLSWORTH                     WI54011          US                                                                                                   000000000000
C4301ATMI017688                                                  201068638893                      75950W135VA2013100905020131009092                                 0075                MI           FIX                                                                                       000000000000
C4302ATMI017688                    1HC NLOOSLI                             VERNA                    M                                                                                                                       574245665           34                                              000000000000
C4303ATMI017688                    14760 PRATOR ST                                                                                          ANCHORAGE                     AK99516          US                                                                                                   000000000000
C4302ATMI017688                    1JV NLOOSLI                             VERNA                    M                                                                                                                       574245665           34                                              000000000000
C4303ATMI017688                    14760 PRATOR ST                                                                                          ANCHORAGE                     AK99516          US                                                                                                   000000000000
C4302ATMI017688                    1OK NLOOSLI                             FRANK                    D                                                                                                                       574226575           34                                              000000000000
C4303ATMI017688                    PO BOX 7090                                                                                              OCEAN VIEW                    HI96737          US                                                                                                   000000000000
C4304ATMI017688                                          KLOPFER                            MICHAEL                                                               H1                      N7393326                                                                                              000000000000
C4305ATMI017688                    47560231630000000031                              0000000000100000D450 0000000000000000    0000000000000000    0000000000017648DHL 0000000000000000    0000000000000000    0000000000000000                                            20230610202306112023  000000000000
C4306ATMI017688                    75950W135001        0000000000117648D0000000000000000 0000000000000000 0000000000000000 0000000000000000 0000000000000000 000000000000000  000000000000000000                                   0000000000  0000000000                                       000000000000
C4307ATMI017688                    1HA NLOOSLI                             FRANK                    D                                                                                                                       574226575           34                                              000000000000
C4308ATMI017688                       0000000000117648D0000000000017648D                                                  0000000000000000 C8                                                                                                                                                   000000000000
C4309ATMI017688                    PO BOX 7090                                                                                              OCEAN VIEW                    HI96737          US                                                                                                   000000000000
